{
  "contractName": "container",
  "abi": [
    {
      "inputs": [],
      "payable": false,
      "stateMutability": "nonpayable",
      "type": "constructor"
    },
    {
      "anonymous": false,
      "inputs": [
        {
          "indexed": false,
          "internalType": "uint256",
          "name": "pId",
          "type": "uint256"
        },
        {
          "indexed": false,
          "internalType": "string",
          "name": "name",
          "type": "string"
        },
        {
          "indexed": false,
          "internalType": "uint256",
          "name": "cost",
          "type": "uint256"
        },
        {
          "indexed": false,
          "internalType": "address payable",
          "name": "owner",
          "type": "address"
        },
        {
          "indexed": false,
          "internalType": "string",
          "name": "procedure",
          "type": "string"
        },
        {
          "indexed": false,
          "internalType": "uint256",
          "name": "hospId",
          "type": "uint256"
        },
        {
          "indexed": false,
          "internalType": "string",
          "name": "doctorName",
          "type": "string"
        },
        {
          "indexed": false,
          "internalType": "bool",
          "name": "treated",
          "type": "bool"
        },
        {
          "indexed": false,
          "internalType": "string",
          "name": "image",
          "type": "string"
        }
      ],
      "name": "PatientAdded",
      "type": "event"
    },
    {
      "constant": true,
      "inputs": [],
      "name": "imagetext",
      "outputs": [
        {
          "internalType": "string",
          "name": "",
          "type": "string"
        }
      ],
      "payable": false,
      "stateMutability": "view",
      "type": "function"
    },
    {
      "constant": true,
      "inputs": [],
      "name": "patientCount",
      "outputs": [
        {
          "internalType": "uint256",
          "name": "",
          "type": "uint256"
        }
      ],
      "payable": false,
      "stateMutability": "view",
      "type": "function"
    },
    {
      "constant": true,
      "inputs": [
        {
          "internalType": "uint256",
          "name": "",
          "type": "uint256"
        }
      ],
      "name": "patients",
      "outputs": [
        {
          "internalType": "uint256",
          "name": "pId",
          "type": "uint256"
        },
        {
          "internalType": "string",
          "name": "name",
          "type": "string"
        },
        {
          "internalType": "uint256",
          "name": "cost",
          "type": "uint256"
        },
        {
          "internalType": "address payable",
          "name": "owner",
          "type": "address"
        },
        {
          "internalType": "string",
          "name": "procedure",
          "type": "string"
        },
        {
          "internalType": "uint256",
          "name": "hospId",
          "type": "uint256"
        },
        {
          "internalType": "string",
          "name": "doctorName",
          "type": "string"
        },
        {
          "internalType": "bool",
          "name": "treated",
          "type": "bool"
        },
        {
          "internalType": "string",
          "name": "image",
          "type": "string"
        }
      ],
      "payable": false,
      "stateMutability": "view",
      "type": "function"
    },
    {
      "constant": true,
      "inputs": [],
      "name": "placeHolderTest",
      "outputs": [
        {
          "internalType": "string",
          "name": "",
          "type": "string"
        }
      ],
      "payable": false,
      "stateMutability": "view",
      "type": "function"
    },
    {
      "constant": false,
      "inputs": [
        {
          "internalType": "string",
          "name": "name1",
          "type": "string"
        },
        {
          "internalType": "uint256",
          "name": "cost1",
          "type": "uint256"
        },
        {
          "internalType": "string",
          "name": "procedure1",
          "type": "string"
        },
        {
          "internalType": "uint256",
          "name": "hId1",
          "type": "uint256"
        },
        {
          "internalType": "string",
          "name": "docName1",
          "type": "string"
        },
        {
          "internalType": "bool",
          "name": "treat1",
          "type": "bool"
        },
        {
          "internalType": "string",
          "name": "image1",
          "type": "string"
        }
      ],
      "name": "createPatient",
      "outputs": [],
      "payable": false,
      "stateMutability": "nonpayable",
      "type": "function"
    }
  ],
  "bytecode": "0x6080604052600060015534801561001557600080fd5b506040518060400160405280601481526020017f313131313131313131313131313131313131313100000000000000000000000081525060009080519060200190610061929190610067565b5061010c565b828054600181600116156101000203166002900490600052602060002090601f016020900481019282601f106100a857805160ff19168380011785556100d6565b828001600101855582156100d6579182015b828111156100d55782518255916020019190600101906100ba565b5b5090506100e391906100e7565b5090565b61010991905b808211156101055760008160009055506001016100ed565b5090565b90565b610f348061011b6000396000f3fe608060405234801561001057600080fd5b50600436106100575760003560e01c8063660400591461005c57806392e7f107146100df57806393119a831461037f578063995406ff146105bd578063a0303c4114610640575b600080fd5b61006461065e565b6040518080602001828103825283818151815260200191508051906020019080838360005b838110156100a4578082015181840152602081019050610089565b50505050905090810190601f1680156100d15780820380516001836020036101000a031916815260200191505b509250505060405180910390f35b61037d600480360360e08110156100f557600080fd5b810190808035906020019064010000000081111561011257600080fd5b82018360208201111561012457600080fd5b8035906020019184600183028401116401000000008311171561014657600080fd5b91908080601f016020809104026020016040519081016040528093929190818152602001838380828437600081840152601f19601f82011690508083019250505050505050919291929080359060200190929190803590602001906401000000008111156101b357600080fd5b8201836020820111156101c557600080fd5b803590602001918460018302840111640100000000831117156101e757600080fd5b91908080601f016020809104026020016040519081016040528093929190818152602001838380828437600081840152601f19601f820116905080830192505050505050509192919290803590602001909291908035906020019064010000000081111561025457600080fd5b82018360208201111561026657600080fd5b8035906020019184600183028401116401000000008311171561028857600080fd5b91908080601f016020809104026020016040519081016040528093929190818152602001838380828437600081840152601f19601f820116905080830192505050505050509192919290803515159060200190929190803590602001906401000000008111156102f757600080fd5b82018360208201111561030957600080fd5b8035906020019184600183028401116401000000008311171561032b57600080fd5b91908080601f016020809104026020016040519081016040528093929190818152602001838380828437600081840152601f19601f8201169050808301925050505050505091929192905050506106fc565b005b6103ab6004803603602081101561039557600080fd5b8101908080359060200190929190505050610adb565b604051808a8152602001806020018981526020018873ffffffffffffffffffffffffffffffffffffffff1673ffffffffffffffffffffffffffffffffffffffff1681526020018060200187815260200180602001861515151581526020018060200185810385528d818151815260200191508051906020019080838360005b8381101561044557808201518184015260208101905061042a565b50505050905090810190601f1680156104725780820380516001836020036101000a031916815260200191505b5085810384528a818151815260200191508051906020019080838360005b838110156104ab578082015181840152602081019050610490565b50505050905090810190601f1680156104d85780820380516001836020036101000a031916815260200191505b50858103835288818151815260200191508051906020019080838360005b838110156105115780820151818401526020810190506104f6565b50505050905090810190601f16801561053e5780820380516001836020036101000a031916815260200191505b50858103825286818151815260200191508051906020019080838360005b8381101561057757808201518184015260208101905061055c565b50505050905090810190601f1680156105a45780820380516001836020036101000a031916815260200191505b509d505050505050505050505050505060405180910390f35b6105c5610db6565b6040518080602001828103825283818151815260200191508051906020019080838360005b838110156106055780820151818401526020810190506105ea565b50505050905090810190601f1680156106325780820380516001836020036101000a031916815260200191505b509250505060405180910390f35b610648610e54565b6040518082815260200191505060405180910390f35b60028054600181600116156101000203166002900480601f0160208091040260200160405190810160405280929190818152602001828054600181600116156101000203166002900480156106f45780601f106106c9576101008083540402835291602001916106f4565b820191906000526020600020905b8154815290600101906020018083116106d757829003601f168201915b505050505081565b600087511161070a57600080fd5b6000861161071757600080fd5b60016000815480929190600101919050555060405180610120016040528060015481526020018881526020018781526020013373ffffffffffffffffffffffffffffffffffffffff1681526020018681526020018581526020018481526020018315158152602001828152506003600060015481526020019081526020016000206000820151816000015560208201518160010190805190602001906107be929190610e5a565b506040820151816002015560608201518160030160006101000a81548173ffffffffffffffffffffffffffffffffffffffff021916908373ffffffffffffffffffffffffffffffffffffffff160217905550608082015181600401908051906020019061082c929190610e5a565b5060a0820151816005015560c0820151816006019080519060200190610853929190610e5a565b5060e08201518160070160006101000a81548160ff021916908315150217905550610100820151816008019080519060200190610891929190610e5a565b509050507fd39706cdce466fc4175dbc0e393fb604f8b778e33a6aa0f27b19c28ebea2f4cf6001548888338989898989604051808a8152602001806020018981526020018873ffffffffffffffffffffffffffffffffffffffff1673ffffffffffffffffffffffffffffffffffffffff1681526020018060200187815260200180602001861515151581526020018060200185810385528d818151815260200191508051906020019080838360005b8381101561095b578082015181840152602081019050610940565b50505050905090810190601f1680156109885780820380516001836020036101000a031916815260200191505b5085810384528a818151815260200191508051906020019080838360005b838110156109c15780820151818401526020810190506109a6565b50505050905090810190601f1680156109ee5780820380516001836020036101000a031916815260200191505b50858103835288818151815260200191508051906020019080838360005b83811015610a27578082015181840152602081019050610a0c565b50505050905090810190601f168015610a545780820380516001836020036101000a031916815260200191505b50858103825286818151815260200191508051906020019080838360005b83811015610a8d578082015181840152602081019050610a72565b50505050905090810190601f168015610aba5780820380516001836020036101000a031916815260200191505b509d505050505050505050505050505060405180910390a150505050505050565b6003602052806000526040600020600091509050806000015490806001018054600181600116156101000203166002900480601f016020809104026020016040519081016040528092919081815260200182805460018160011615610100020316600290048015610b8d5780601f10610b6257610100808354040283529160200191610b8d565b820191906000526020600020905b815481529060010190602001808311610b7057829003601f168201915b5050505050908060020154908060030160009054906101000a900473ffffffffffffffffffffffffffffffffffffffff1690806004018054600181600116156101000203166002900480601f016020809104026020016040519081016040528092919081815260200182805460018160011615610100020316600290048015610c575780601f10610c2c57610100808354040283529160200191610c57565b820191906000526020600020905b815481529060010190602001808311610c3a57829003601f168201915b505050505090806005015490806006018054600181600116156101000203166002900480601f016020809104026020016040519081016040528092919081815260200182805460018160011615610100020316600290048015610cfb5780601f10610cd057610100808354040283529160200191610cfb565b820191906000526020600020905b815481529060010190602001808311610cde57829003601f168201915b5050505050908060070160009054906101000a900460ff1690806008018054600181600116156101000203166002900480601f016020809104026020016040519081016040528092919081815260200182805460018160011615610100020316600290048015610dac5780601f10610d8157610100808354040283529160200191610dac565b820191906000526020600020905b815481529060010190602001808311610d8f57829003601f168201915b5050505050905089565b60008054600181600116156101000203166002900480601f016020809104026020016040519081016040528092919081815260200182805460018160011615610100020316600290048015610e4c5780601f10610e2157610100808354040283529160200191610e4c565b820191906000526020600020905b815481529060010190602001808311610e2f57829003601f168201915b505050505081565b60015481565b828054600181600116156101000203166002900490600052602060002090601f016020900481019282601f10610e9b57805160ff1916838001178555610ec9565b82800160010185558215610ec9579182015b82811115610ec8578251825591602001919060010190610ead565b5b509050610ed69190610eda565b5090565b610efc91905b80821115610ef8576000816000905550600101610ee0565b5090565b9056fea265627a7a72315820e558629d6583131df9f8c4d1de4a068453d979bbcd3a030781109c8186ee5ab864736f6c634300050c0032",
  "source": "pragma solidity >=0.4.21 <0.6.2;\n\ncontract container {\n\n    constructor() public {\n        placeHolderTest = \"11111111111111111111\";\n    }\n    string public placeHolderTest;\n    uint public patientCount = 0;\n    string public imagetext;\n    struct patient {\n        uint pId;\n        string name;\n        uint cost;\n        address payable owner;\n        string procedure;\n        uint hospId;\n        string doctorName;\n        bool treated;\n        string image;\n    }\n\n\n    mapping(uint => patient) public patients;\n\n    event PatientAdded(\n        uint pId,\n        string name,\n        uint cost,\n        address payable owner,\n        string procedure,\n        uint hospId,\n        string doctorName,\n        bool treated,\n        string image\n    );\n\n    // sampling n1-nx\n\n\n    // function shareTo(address)\n    // {\n    //     // communicate with contract here\n    //     // return xmax\n        \n    // }\n\n    function createPatient(string memory name1, uint cost1, string memory procedure1, uint hId1, string memory docName1, bool treat1, string memory image1)\n     public {\n        require(bytes(name1).length > 0);\n        require(cost1 > 0);\n        patientCount ++;\n        patients[patientCount] = patient(patientCount, name1, cost1, msg.sender, procedure1, hId1, docName1, treat1, image1);\n \n        emit PatientAdded(patientCount, name1, cost1, msg.sender, procedure1, hId1, docName1, treat1, image1);\n    }\n\n\n}\n",
  "sourcePath": "/home/fkb/blockchain/blockChain/sample/src/contracts/container.sol",
  "compiler": {
    "name": "solc",
    "version": "0.5.12+commit.7709ece9.Emscripten.clang"
  },
  "schemaVersion": "3.0.20",
  "updatedAt": "2020-05-15T15:10:54.976Z",
  "devdoc": {
    "methods": {}
  },
  "userdoc": {
    "methods": {}
  }
}