{
  "contractName": "Insurance",
  "abi": [
    {
      "inputs": [],
      "payable": false,
      "stateMutability": "nonpayable",
      "type": "constructor"
    },
    {
      "anonymous": false,
      "inputs": [
        {
          "indexed": false,
          "internalType": "uint256",
          "name": "pId",
          "type": "uint256"
        },
        {
          "indexed": false,
          "internalType": "string",
          "name": "name",
          "type": "string"
        },
        {
          "indexed": false,
          "internalType": "string",
          "name": "phone",
          "type": "string"
        },
        {
          "indexed": false,
          "internalType": "address payable",
          "name": "owner",
          "type": "address"
        },
        {
          "indexed": false,
          "internalType": "uint256",
          "name": "numRecords",
          "type": "uint256"
        }
      ],
      "name": "PatientAdded",
      "type": "event"
    },
    {
      "anonymous": false,
      "inputs": [
        {
          "indexed": false,
          "internalType": "uint256",
          "name": "pId",
          "type": "uint256"
        },
        {
          "indexed": false,
          "internalType": "uint256",
          "name": "cost",
          "type": "uint256"
        },
        {
          "indexed": false,
          "internalType": "address payable",
          "name": "owner",
          "type": "address"
        },
        {
          "indexed": false,
          "internalType": "address payable",
          "name": "uploader",
          "type": "address"
        },
        {
          "indexed": false,
          "internalType": "string",
          "name": "procedure",
          "type": "string"
        },
        {
          "indexed": false,
          "internalType": "uint256",
          "name": "hospId",
          "type": "uint256"
        },
        {
          "indexed": false,
          "internalType": "string",
          "name": "doctorName",
          "type": "string"
        },
        {
          "indexed": false,
          "internalType": "bool",
          "name": "treated",
          "type": "bool"
        },
        {
          "indexed": false,
          "internalType": "string",
          "name": "image",
          "type": "string"
        }
      ],
      "name": "RecordAdded",
      "type": "event"
    },
    {
      "constant": true,
      "inputs": [],
      "name": "clientCount",
      "outputs": [
        {
          "internalType": "uint256",
          "name": "",
          "type": "uint256"
        }
      ],
      "payable": false,
      "stateMutability": "view",
      "type": "function"
    },
    {
      "constant": true,
      "inputs": [
        {
          "internalType": "uint256",
          "name": "",
          "type": "uint256"
        }
      ],
      "name": "clients",
      "outputs": [
        {
          "internalType": "uint256",
          "name": "pId",
          "type": "uint256"
        },
        {
          "internalType": "string",
          "name": "name",
          "type": "string"
        },
        {
          "internalType": "string",
          "name": "phone",
          "type": "string"
        },
        {
          "internalType": "uint256",
          "name": "cost",
          "type": "uint256"
        },
        {
          "internalType": "address",
          "name": "uploader",
          "type": "address"
        },
        {
          "internalType": "string",
          "name": "procedure",
          "type": "string"
        },
        {
          "internalType": "uint256",
          "name": "hospId",
          "type": "uint256"
        },
        {
          "internalType": "string",
          "name": "doctorName",
          "type": "string"
        },
        {
          "internalType": "bool",
          "name": "treated",
          "type": "bool"
        },
        {
          "internalType": "string",
          "name": "image",
          "type": "string"
        }
      ],
      "payable": false,
      "stateMutability": "view",
      "type": "function"
    },
    {
      "constant": true,
      "inputs": [],
      "name": "imagetext",
      "outputs": [
        {
          "internalType": "string",
          "name": "",
          "type": "string"
        }
      ],
      "payable": false,
      "stateMutability": "view",
      "type": "function"
    },
    {
      "constant": true,
      "inputs": [],
      "name": "placeHolderTest",
      "outputs": [
        {
          "internalType": "string",
          "name": "",
          "type": "string"
        }
      ],
      "payable": false,
      "stateMutability": "view",
      "type": "function"
    },
    {
      "constant": false,
      "inputs": [
        {
          "internalType": "string",
          "name": "name1",
          "type": "string"
        },
        {
          "internalType": "string",
          "name": "phone1",
          "type": "string"
        },
        {
          "internalType": "uint256",
          "name": "cost1",
          "type": "uint256"
        },
        {
          "internalType": "string",
          "name": "procedure1",
          "type": "string"
        },
        {
          "internalType": "uint256",
          "name": "hospId1",
          "type": "uint256"
        },
        {
          "internalType": "string",
          "name": "docName1",
          "type": "string"
        },
        {
          "internalType": "bool",
          "name": "treated1",
          "type": "bool"
        },
        {
          "internalType": "string",
          "name": "image1",
          "type": "string"
        }
      ],
      "name": "createClient",
      "outputs": [],
      "payable": false,
      "stateMutability": "nonpayable",
      "type": "function"
    }
  ],
  "bytecode": "0x6080604052600060015534801561001557600080fd5b506040518060400160405280601481526020017f313131313131313131313131313131313131313100000000000000000000000081525060009080519060200190610061929190610067565b5061010c565b828054600181600116156101000203166002900490600052602060002090601f016020900481019282601f106100a857805160ff19168380011785556100d6565b828001600101855582156100d6579182015b828111156100d55782518255916020019190600101906100ba565b5b5090506100e391906100e7565b5090565b61010991905b808211156101055760008160009055506001016100ed565b5090565b90565b610ff38061011b6000396000f3fe608060405234801561001057600080fd5b50600436106100575760003560e01c806311614c9e1461005c5780636604005914610394578063995406ff14610417578063e541c71e1461049a578063f88af21d146104b8575b600080fd5b610392600480360361010081101561007357600080fd5b810190808035906020019064010000000081111561009057600080fd5b8201836020820111156100a257600080fd5b803590602001918460018302840111640100000000831117156100c457600080fd5b91908080601f016020809104026020016040519081016040528093929190818152602001838380828437600081840152601f19601f8201169050808301925050505050505091929192908035906020019064010000000081111561012757600080fd5b82018360208201111561013957600080fd5b8035906020019184600183028401116401000000008311171561015b57600080fd5b91908080601f016020809104026020016040519081016040528093929190818152602001838380828437600081840152601f19601f82011690508083019250505050505050919291929080359060200190929190803590602001906401000000008111156101c857600080fd5b8201836020820111156101da57600080fd5b803590602001918460018302840111640100000000831117156101fc57600080fd5b91908080601f016020809104026020016040519081016040528093929190818152602001838380828437600081840152601f19601f820116905080830192505050505050509192919290803590602001909291908035906020019064010000000081111561026957600080fd5b82018360208201111561027b57600080fd5b8035906020019184600183028401116401000000008311171561029d57600080fd5b91908080601f016020809104026020016040519081016040528093929190818152602001838380828437600081840152601f19601f8201169050808301925050505050505091929192908035151590602001909291908035906020019064010000000081111561030c57600080fd5b82018360208201111561031e57600080fd5b8035906020019184600183028401116401000000008311171561034057600080fd5b91908080601f016020809104026020016040519081016040528093929190818152602001838380828437600081840152601f19601f820116905080830192505050505050509192919290505050610762565b005b61039c610a5e565b6040518080602001828103825283818151815260200191508051906020019080838360005b838110156103dc5780820151818401526020810190506103c1565b50505050905090810190601f1680156104095780820380516001836020036101000a031916815260200191505b509250505060405180910390f35b61041f610afc565b6040518080602001828103825283818151815260200191508051906020019080838360005b8381101561045f578082015181840152602081019050610444565b50505050905090810190601f16801561048c5780820380516001836020036101000a031916815260200191505b509250505060405180910390f35b6104a2610b9a565b6040518082815260200191505060405180910390f35b6104e4600480360360208110156104ce57600080fd5b8101908080359060200190929190505050610ba0565b604051808b815260200180602001806020018a81526020018973ffffffffffffffffffffffffffffffffffffffff1673ffffffffffffffffffffffffffffffffffffffff1681526020018060200188815260200180602001871515151581526020018060200186810386528f818151815260200191508051906020019080838360005b83811015610582578082015181840152602081019050610567565b50505050905090810190601f1680156105af5780820380516001836020036101000a031916815260200191505b5086810385528e818151815260200191508051906020019080838360005b838110156105e85780820151818401526020810190506105cd565b50505050905090810190601f1680156106155780820380516001836020036101000a031916815260200191505b5086810384528b818151815260200191508051906020019080838360005b8381101561064e578082015181840152602081019050610633565b50505050905090810190601f16801561067b5780820380516001836020036101000a031916815260200191505b50868103835289818151815260200191508051906020019080838360005b838110156106b4578082015181840152602081019050610699565b50505050905090810190601f1680156106e15780820380516001836020036101000a031916815260200191505b50868103825287818151815260200191508051906020019080838360005b8381101561071a5780820151818401526020810190506106ff565b50505050905090810190601f1680156107475780820380516001836020036101000a031916815260200191505b509f5050505050505050505050505050505060405180910390f35b60016000815480929190600101919050555060405180610140016040528060015481526020018981526020018881526020018781526020013373ffffffffffffffffffffffffffffffffffffffff16815260200186815260200185815260200184815260200183151581526020018281525060036000600154815260200190815260200160002060008201518160000155602082015181600101908051906020019061080f929190610f19565b50604082015181600201908051906020019061082c929190610f19565b506060820151816003015560808201518160040160006101000a81548173ffffffffffffffffffffffffffffffffffffffff021916908373ffffffffffffffffffffffffffffffffffffffff16021790555060a082015181600501908051906020019061089a929190610f19565b5060c0820151816006015560e08201518160070190805190602001906108c1929190610f19565b506101008201518160080160006101000a81548160ff021916908315150217905550610120820151816009019080519060200190610900929190610f19565b509050507fade6e0d4e65b59714be038ed514e2984a98deb0777162f1d8f691a5b8bd82ded60015489893360006040518086815260200180602001806020018573ffffffffffffffffffffffffffffffffffffffff1673ffffffffffffffffffffffffffffffffffffffff168152602001848152602001838103835287818151815260200191508051906020019080838360005b838110156109af578082015181840152602081019050610994565b50505050905090810190601f1680156109dc5780820380516001836020036101000a031916815260200191505b50838103825286818151815260200191508051906020019080838360005b83811015610a155780820151818401526020810190506109fa565b50505050905090810190601f168015610a425780820380516001836020036101000a031916815260200191505b5097505050505050505060405180910390a15050505050505050565b60028054600181600116156101000203166002900480601f016020809104026020016040519081016040528092919081815260200182805460018160011615610100020316600290048015610af45780601f10610ac957610100808354040283529160200191610af4565b820191906000526020600020905b815481529060010190602001808311610ad757829003601f168201915b505050505081565b60008054600181600116156101000203166002900480601f016020809104026020016040519081016040528092919081815260200182805460018160011615610100020316600290048015610b925780601f10610b6757610100808354040283529160200191610b92565b820191906000526020600020905b815481529060010190602001808311610b7557829003601f168201915b505050505081565b60015481565b6003602052806000526040600020600091509050806000015490806001018054600181600116156101000203166002900480601f016020809104026020016040519081016040528092919081815260200182805460018160011615610100020316600290048015610c525780601f10610c2757610100808354040283529160200191610c52565b820191906000526020600020905b815481529060010190602001808311610c3557829003601f168201915b505050505090806002018054600181600116156101000203166002900480601f016020809104026020016040519081016040528092919081815260200182805460018160011615610100020316600290048015610cf05780601f10610cc557610100808354040283529160200191610cf0565b820191906000526020600020905b815481529060010190602001808311610cd357829003601f168201915b5050505050908060030154908060040160009054906101000a900473ffffffffffffffffffffffffffffffffffffffff1690806005018054600181600116156101000203166002900480601f016020809104026020016040519081016040528092919081815260200182805460018160011615610100020316600290048015610dba5780601f10610d8f57610100808354040283529160200191610dba565b820191906000526020600020905b815481529060010190602001808311610d9d57829003601f168201915b505050505090806006015490806007018054600181600116156101000203166002900480601f016020809104026020016040519081016040528092919081815260200182805460018160011615610100020316600290048015610e5e5780601f10610e3357610100808354040283529160200191610e5e565b820191906000526020600020905b815481529060010190602001808311610e4157829003601f168201915b5050505050908060080160009054906101000a900460ff1690806009018054600181600116156101000203166002900480601f016020809104026020016040519081016040528092919081815260200182805460018160011615610100020316600290048015610f0f5780601f10610ee457610100808354040283529160200191610f0f565b820191906000526020600020905b815481529060010190602001808311610ef257829003601f168201915b505050505090508a565b828054600181600116156101000203166002900490600052602060002090601f016020900481019282601f10610f5a57805160ff1916838001178555610f88565b82800160010185558215610f88579182015b82811115610f87578251825591602001919060010190610f6c565b5b509050610f959190610f99565b5090565b610fbb91905b80821115610fb7576000816000905550600101610f9f565b5090565b9056fea265627a7a723158202e1727f78c1088c4daf8c16a0e2b5c29b12377b3ea4a3fc32cd55ff3d3d25a8b64736f6c634300050c0032",
  "source": "pragma solidity >=0.4.21 <0.6.2;\n\ncontract Insurance {\n\n    constructor() public {\n        placeHolderTest = \"11111111111111111111\";\n    }\n    string public placeHolderTest;\n    uint public clientCount = 0;\n    string public imagetext;\n\n\n    struct client {\n        uint pId;\n        string name;\n        string phone;\n        // address payable owner;\n        // uint numRecords;\n        uint cost;\n        address uploader;\n        string procedure;\n        uint hospId;\n        string doctorName;\n        bool treated;\n        string image;\n    }\n\n    mapping(uint => client) public clients;\n    // mapping( => record) public records;\n\n    event PatientAdded(\n        uint pId,\n        string name,\n        string phone,\n        address payable owner,\n        uint numRecords\n    );\n\n    event RecordAdded(\n        uint pId,\n        uint cost,\n        address payable owner,\n        address payable uploader,\n        string procedure,\n        uint hospId,\n        string doctorName,\n        bool treated,\n        string image\n    );\n\n\n    function createClient(string memory name1, string memory phone1, uint cost1, string memory procedure1, uint hospId1, string memory docName1, bool treated1, string memory image1 )\n     public {\n        clientCount ++;\n\n        clients[clientCount] = client(\n            clientCount,\n            name1,\n            phone1,\n            // patientAddress1,\n            cost1,\n            msg.sender,\n            procedure1,\n            hospId1,\n            docName1,\n            treated1,\n            image1\n            );\n\n        emit PatientAdded(clientCount, name1, phone1, msg.sender, 0);\n    }\n\n\n    // function createRecord(uint pId1, uint cost1, string memory procedure1, uint hospId1, string memory docName1, bool treated1, string memory image1)\n    //  public {\n\n    //     uint position = clients[pId1].numRecords;\n    //     clients[pId1].numRecords++;\n\n    //     clients[pId1].cost[position] = cost1; //, clients[pId1].owner,msg.sender,procedure1,hospId1,docName1,treated1,image1);\n    //     clients[pId1].uploader[position] = msg.sender;\n    //     clients[pId1].procedure[position] = procedure1;\n    //     clients[pId1].hospId[position] = hospId1;\n    //     clients[pId1].doctorName[position] = docName1;\n    //     clients[pId1].treated[position] = treated1;\n    //     clients[pId1].image[position] = image1;\n\n    //     emit RecordAdded(pId1,cost1, clients[pId1].owner,msg.sender,procedure1,hospId1,docName1,treated1,image1);\n    // }\n\n}\n\n\n\n\n\n\n",
  "sourcePath": "/home/fkb/blockchain/blockChain/insurance/src/contracts/Insurance.sol",
  "compiler": {
    "name": "solc",
    "version": "0.5.12+commit.7709ece9.Emscripten.clang"
  },
  "schemaVersion": "3.0.20",
  "updatedAt": "2020-06-10T14:19:47.739Z",
  "networkType": "ethereum",
  "devdoc": {
    "methods": {}
  },
  "userdoc": {
    "methods": {}
  }
}