{
  "contractName": "test",
  "abi": [
    {
      "inputs": [],
      "payable": false,
      "stateMutability": "nonpayable",
      "type": "constructor"
    },
    {
      "anonymous": false,
      "inputs": [
        {
          "indexed": false,
          "internalType": "string",
          "name": "x",
          "type": "string"
        }
      ],
      "name": "printHex",
      "type": "event"
    },
    {
      "constant": true,
      "inputs": [],
      "name": "add",
      "outputs": [
        {
          "internalType": "string",
          "name": "",
          "type": "string"
        }
      ],
      "payable": false,
      "stateMutability": "view",
      "type": "function"
    },
    {
      "constant": true,
      "inputs": [],
      "name": "message",
      "outputs": [
        {
          "internalType": "string",
          "name": "",
          "type": "string"
        }
      ],
      "payable": false,
      "stateMutability": "view",
      "type": "function"
    },
    {
      "constant": false,
      "inputs": [
        {
          "internalType": "string",
          "name": "x",
          "type": "string"
        }
      ],
      "name": "set",
      "outputs": [],
      "payable": false,
      "stateMutability": "nonpayable",
      "type": "function"
    },
    {
      "constant": true,
      "inputs": [],
      "name": "get",
      "outputs": [
        {
          "internalType": "string",
          "name": "",
          "type": "string"
        }
      ],
      "payable": false,
      "stateMutability": "view",
      "type": "function"
    }
  ],
  "bytecode": "0x608060405234801561001057600080fd5b506040518060600160405280602a8152602001610660602a91396001908051906020019061003f929190610045565b506100ea565b828054600181600116156101000203166002900490600052602060002090601f016020900481019282601f1061008657805160ff19168380011785556100b4565b828001600101855582156100b4579182015b828111156100b3578251825591602001919060010190610098565b5b5090506100c191906100c5565b5090565b6100e791905b808211156100e35760008160009055506001016100cb565b5090565b90565b610567806100f96000396000f3fe608060405234801561001057600080fd5b506004361061004c5760003560e01c80634ed3885e146100515780634f2be91f1461010c5780636d4ce63c1461018f578063e21f37ce14610212575b600080fd5b61010a6004803603602081101561006757600080fd5b810190808035906020019064010000000081111561008457600080fd5b82018360208201111561009657600080fd5b803590602001918460018302840111640100000000831117156100b857600080fd5b91908080601f016020809104026020016040519081016040528093929190818152602001838380828437600081840152601f19601f820116905080830192505050505050509192919290505050610295565b005b6101146102af565b6040518080602001828103825283818151815260200191508051906020019080838360005b83811015610154578082015181840152602081019050610139565b50505050905090810190601f1680156101815780820380516001836020036101000a031916815260200191505b509250505060405180910390f35b61019761034d565b6040518080602001828103825283818151815260200191508051906020019080838360005b838110156101d75780820151818401526020810190506101bc565b50505050905090810190601f1680156102045780820380516001836020036101000a031916815260200191505b509250505060405180910390f35b61021a6103ef565b6040518080602001828103825283818151815260200191508051906020019080838360005b8381101561025a57808201518184015260208101905061023f565b50505050905090810190601f1680156102875780820380516001836020036101000a031916815260200191505b509250505060405180910390f35b80600590805190602001906102ab92919061048d565b5050565b60018054600181600116156101000203166002900480601f0160208091040260200160405190810160405280929190818152602001828054600181600116156101000203166002900480156103455780601f1061031a57610100808354040283529160200191610345565b820191906000526020600020905b81548152906001019060200180831161032857829003601f168201915b505050505081565b606060058054600181600116156101000203166002900480601f0160208091040260200160405190810160405280929190818152602001828054600181600116156101000203166002900480156103e55780601f106103ba576101008083540402835291602001916103e5565b820191906000526020600020905b8154815290600101906020018083116103c857829003601f168201915b5050505050905090565b60008054600181600116156101000203166002900480601f0160208091040260200160405190810160405280929190818152602001828054600181600116156101000203166002900480156104855780601f1061045a57610100808354040283529160200191610485565b820191906000526020600020905b81548152906001019060200180831161046857829003601f168201915b505050505081565b828054600181600116156101000203166002900490600052602060002090601f016020900481019282601f106104ce57805160ff19168380011785556104fc565b828001600101855582156104fc579182015b828111156104fb5782518255916020019190600101906104e0565b5b509050610509919061050d565b5090565b61052f91905b8082111561052b576000816000905550600101610513565b5090565b9056fea265627a7a72315820c8ada5562730b4247e4ac42a137adb6f1f9e5dc4fe6d88e7e10a3ac186cf4cc464736f6c634300050c0032307838623330343831373765363139463333463635313664343962353145443437373930346366336231",
  "source": "pragma solidity >=0.4.21 <0.6.0;\n// from web3 import Web3, HTTPProvider,TestRPCProvider;\n// import ether;\n// import wei;\n\n\ncontract test {\n    string public message;\n    string public add;\n    string[] hex_storage;\n    address patient;\n    int256 len;\n\n    // pure???\n\n     constructor() public {\n        add = \"0x8b3048177e619F33F6516d49b51ED477904cf3b1\";\n    }\n\n\n\n\n    event printHex(string x);\n\n\n    // contract SimpleStorage {\n  string ipfsHash;\n\n  function set(string memory x) public {\n    ipfsHash = x;\n  }\n\n  function get() public view returns (string memory) {\n    return ipfsHash;\n  }\n\n\n\n\n    // function input1(string memory initialMessage) public payable {\n\n    //         // let gas = parseInt(4000000).toString(16);\n    //         // let gasPrice = parseInt(4000000000).toString(16);\n    //         // let transactionObject = {\n    //         //          gas: gas,\n    //         //          gasPrice: gasPrice,\n    //         //          data: deploy,\n    //         //          from: req.body.sender_address\n    //         //                                     };\n\n\n\n    //     // web3.eth.sendTransaction({ from : dummy_account_1,\n    //     //  nonce: \"2\", to: add, value: web3.toWei(1, 'ether'), data : \"12345678\", gas: 3000000, gasPrice: web3.toWei('50', 'gwei') });\n    //     // patient = msg.sender;\n    //     // message = initialMessage;\n    // }\n\n    // // modifier ispatient {\n    //     require(msg.sender == patient);\n    //     }\n\n    // function setMessage(string memory newMessage) public\n    // {\n    //     message = newMessage;\n    // }\n    // function getMessage() public view returns (string memory)\n    //     {\n    //         return message;\n    //     }\n\n    // function storeMember(string memory hex_data) public\n    // {\n    //     hex_storage.push(hex_data);\n    // }\n\n    // function getStringLength() public returns (int64)\n    // {\n    //     return int64(hex_storage.length);\n    // }\n\n    // function showMember() public pure      //idhar pure kyu lagega?\n    // {\n    //     len = getStringLength();\n    //     for ( uint i = 0 ; i<int(len); i++)\n    //     {\n    //         // printHex(hex_storage[i]);\n    //     }\n    // }\n\n    // function cleanOutBalance() ispatient public\n    // {\n    //     uint bal = address(this).balance;\n    //     address(patient).transfer(bal);\n    // }\n\n    // function displayBalance() public view returns (uint)\n    // {\n    //     uint bal = address(this).balance;\n    //     return bal;\n    // }\n\n\n}",
  "sourcePath": "/home/fkb/blockchain/blockChain/sample/src/contracts/test.sol",
  "compiler": {
    "name": "solc",
    "version": "0.5.12+commit.7709ece9.Emscripten.clang"
  },
  "schemaVersion": "3.0.20",
  "updatedAt": "2020-05-15T14:16:58.371Z",
  "networkType": "ethereum",
  "devdoc": {
    "methods": {}
  },
  "userdoc": {
    "methods": {}
  }
}