{
  "contractName": "MedRecords",
  "abi": [
    {
      "anonymous": false,
      "inputs": [
        {
          "indexed": false,
          "internalType": "uint256",
          "name": "pId",
          "type": "uint256"
        },
        {
          "indexed": false,
          "internalType": "string",
          "name": "name",
          "type": "string"
        },
        {
          "indexed": false,
          "internalType": "string",
          "name": "phone",
          "type": "string"
        },
        {
          "indexed": false,
          "internalType": "address payable",
          "name": "owner",
          "type": "address"
        },
        {
          "indexed": false,
          "internalType": "uint256",
          "name": "numRecords",
          "type": "uint256"
        }
      ],
      "name": "PatientAdded",
      "type": "event"
    },
    {
      "anonymous": false,
      "inputs": [
        {
          "indexed": false,
          "internalType": "uint256",
          "name": "pId",
          "type": "uint256"
        },
        {
          "indexed": false,
          "internalType": "uint256",
          "name": "cost",
          "type": "uint256"
        },
        {
          "indexed": false,
          "internalType": "address payable",
          "name": "owner",
          "type": "address"
        },
        {
          "indexed": false,
          "internalType": "address payable",
          "name": "uploader",
          "type": "address"
        },
        {
          "indexed": false,
          "internalType": "string",
          "name": "procedure",
          "type": "string"
        },
        {
          "indexed": false,
          "internalType": "uint256",
          "name": "hospId",
          "type": "uint256"
        },
        {
          "indexed": false,
          "internalType": "string",
          "name": "doctorName",
          "type": "string"
        },
        {
          "indexed": false,
          "internalType": "bool",
          "name": "treated",
          "type": "bool"
        },
        {
          "indexed": false,
          "internalType": "string",
          "name": "image",
          "type": "string"
        }
      ],
      "name": "RecordAdded",
      "type": "event"
    },
    {
      "constant": true,
      "inputs": [],
      "name": "patientCount",
      "outputs": [
        {
          "internalType": "uint256",
          "name": "",
          "type": "uint256"
        }
      ],
      "payable": false,
      "stateMutability": "view",
      "type": "function"
    },
    {
      "constant": true,
      "inputs": [
        {
          "internalType": "uint256",
          "name": "",
          "type": "uint256"
        }
      ],
      "name": "patients",
      "outputs": [
        {
          "internalType": "uint256",
          "name": "pId",
          "type": "uint256"
        },
        {
          "internalType": "string",
          "name": "name",
          "type": "string"
        },
        {
          "internalType": "string",
          "name": "phone",
          "type": "string"
        },
        {
          "internalType": "address payable",
          "name": "owner",
          "type": "address"
        },
        {
          "internalType": "uint256",
          "name": "numRecords",
          "type": "uint256"
        },
        {
          "internalType": "uint256",
          "name": "cost",
          "type": "uint256"
        },
        {
          "internalType": "address",
          "name": "uploader",
          "type": "address"
        },
        {
          "internalType": "string",
          "name": "procedure",
          "type": "string"
        },
        {
          "internalType": "string",
          "name": "doctorName",
          "type": "string"
        }
      ],
      "payable": false,
      "stateMutability": "view",
      "type": "function"
    },
    {
      "constant": false,
      "inputs": [
        {
          "internalType": "string",
          "name": "name1",
          "type": "string"
        },
        {
          "internalType": "string",
          "name": "phone1",
          "type": "string"
        },
        {
          "internalType": "address payable",
          "name": "patientAddress1",
          "type": "address"
        }
      ],
      "name": "createPatient",
      "outputs": [],
      "payable": false,
      "stateMutability": "nonpayable",
      "type": "function"
    },
    {
      "constant": false,
      "inputs": [
        {
          "internalType": "uint256",
          "name": "pId1",
          "type": "uint256"
        },
        {
          "internalType": "uint256",
          "name": "cost1",
          "type": "uint256"
        },
        {
          "internalType": "string",
          "name": "procedure1",
          "type": "string"
        },
        {
          "internalType": "uint256",
          "name": "hospId1",
          "type": "uint256"
        },
        {
          "internalType": "string",
          "name": "docName1",
          "type": "string"
        },
        {
          "internalType": "bool",
          "name": "treated1",
          "type": "bool"
        },
        {
          "internalType": "string",
          "name": "image1",
          "type": "string"
        }
      ],
      "name": "createRecord",
      "outputs": [],
      "payable": false,
      "stateMutability": "nonpayable",
      "type": "function"
    }
  ],
  "bytecode": "0x60806040526000805534801561001457600080fd5b50611115806100246000396000f3fe608060405234801561001057600080fd5b506004361061004c5760003560e01c80636c04d5bc146100515780638b132c601461026457806393119a83146103d6578063a0303c411461063c575b600080fd5b610262600480360360e081101561006757600080fd5b8101908080359060200190929190803590602001909291908035906020019064010000000081111561009857600080fd5b8201836020820111156100aa57600080fd5b803590602001918460018302840111640100000000831117156100cc57600080fd5b91908080601f016020809104026020016040519081016040528093929190818152602001838380828437600081840152601f19601f820116905080830192505050505050509192919290803590602001909291908035906020019064010000000081111561013957600080fd5b82018360208201111561014b57600080fd5b8035906020019184600183028401116401000000008311171561016d57600080fd5b91908080601f016020809104026020016040519081016040528093929190818152602001838380828437600081840152601f19601f820116905080830192505050505050509192919290803515159060200190929190803590602001906401000000008111156101dc57600080fd5b8201836020820111156101ee57600080fd5b8035906020019184600183028401116401000000008311171561021057600080fd5b91908080601f016020809104026020016040519081016040528093929190818152602001838380828437600081840152601f19601f82011690508083019250505050505050919291929050505061065a565b005b6103d46004803603606081101561027a57600080fd5b810190808035906020019064010000000081111561029757600080fd5b8201836020820111156102a957600080fd5b803590602001918460018302840111640100000000831117156102cb57600080fd5b91908080601f016020809104026020016040519081016040528093929190818152602001838380828437600081840152601f19601f8201169050808301925050505050505091929192908035906020019064010000000081111561032e57600080fd5b82018360208201111561034057600080fd5b8035906020019184600183028401116401000000008311171561036257600080fd5b91908080601f016020809104026020016040519081016040528093929190818152602001838380828437600081840152601f19601f820116905080830192505050505050509192919290803573ffffffffffffffffffffffffffffffffffffffff169060200190929190505050610987565b005b610402600480360360208110156103ec57600080fd5b8101908080359060200190929190505050610cc7565b604051808a815260200180602001806020018973ffffffffffffffffffffffffffffffffffffffff1673ffffffffffffffffffffffffffffffffffffffff1681526020018881526020018781526020018673ffffffffffffffffffffffffffffffffffffffff1673ffffffffffffffffffffffffffffffffffffffff168152602001806020018060200185810385528d818151815260200191508051906020019080838360005b838110156104c45780820151818401526020810190506104a9565b50505050905090810190601f1680156104f15780820380516001836020036101000a031916815260200191505b5085810384528c818151815260200191508051906020019080838360005b8381101561052a57808201518184015260208101905061050f565b50505050905090810190601f1680156105575780820380516001836020036101000a031916815260200191505b50858103835287818151815260200191508051906020019080838360005b83811015610590578082015181840152602081019050610575565b50505050905090810190601f1680156105bd5780820380516001836020036101000a031916815260200191505b50858103825286818151815260200191508051906020019080838360005b838110156105f65780820151818401526020810190506105db565b50505050905090810190601f1680156106235780820380516001836020036101000a031916815260200191505b509d505050505050505050505050505060405180910390f35b610644610fb5565b6040518082815260200191505060405180910390f35b6001600088815260200190815260200160002060040160008154809291906001019190505550856001600089815260200190815260200160002060050181905550336001600089815260200190815260200160002060060160006101000a81548173ffffffffffffffffffffffffffffffffffffffff021916908373ffffffffffffffffffffffffffffffffffffffff1602179055508460016000898152602001908152602001600020600701908051906020019061071a929190610fbb565b5082600160008981526020019081526020016000206008019080519060200190610745929190610fbb565b507f3e7aac93e1d035be78eeee61a3981b4d605c9140156e408ad98ca195c715e1ef8787600160008b815260200190815260200160002060030160009054906101000a900473ffffffffffffffffffffffffffffffffffffffff16338989898989604051808a81526020018981526020018873ffffffffffffffffffffffffffffffffffffffff1673ffffffffffffffffffffffffffffffffffffffff1681526020018773ffffffffffffffffffffffffffffffffffffffff1673ffffffffffffffffffffffffffffffffffffffff16815260200180602001868152602001806020018515151515815260200180602001848103845289818151815260200191508051906020019080838360005b8381101561086e578082015181840152602081019050610853565b50505050905090810190601f16801561089b5780820380516001836020036101000a031916815260200191505b50848103835287818151815260200191508051906020019080838360005b838110156108d45780820151818401526020810190506108b9565b50505050905090810190601f1680156109015780820380516001836020036101000a031916815260200191505b50848103825285818151815260200191508051906020019080838360005b8381101561093a57808201518184015260208101905061091f565b50505050905090810190601f1680156109675780820380516001836020036101000a031916815260200191505b509c5050505050505050505050505060405180910390a150505050505050565b600080815480929190600101919050555060405180610120016040528060005481526020018481526020018381526020018273ffffffffffffffffffffffffffffffffffffffff168152602001600081526020016000815260200173771d3a7c2d6c59d9030731a48d60d8296303fc0673ffffffffffffffffffffffffffffffffffffffff168152602001604051806020016040528060008152508152602001604051806020016040528060008152508152506001600080548152602001908152602001600020600082015181600001556020820151816001019080519060200190610a7492919061103b565b506040820151816002019080519060200190610a9192919061103b565b5060608201518160030160006101000a81548173ffffffffffffffffffffffffffffffffffffffff021916908373ffffffffffffffffffffffffffffffffffffffff1602179055506080820151816004015560a0820151816005015560c08201518160060160006101000a81548173ffffffffffffffffffffffffffffffffffffffff021916908373ffffffffffffffffffffffffffffffffffffffff16021790555060e0820151816007019080519060200190610b5092919061103b565b50610100820151816008019080519060200190610b6e92919061103b565b509050507fade6e0d4e65b59714be038ed514e2984a98deb0777162f1d8f691a5b8bd82ded60005484843360006040518086815260200180602001806020018573ffffffffffffffffffffffffffffffffffffffff1673ffffffffffffffffffffffffffffffffffffffff168152602001848152602001838103835287818151815260200191508051906020019080838360005b83811015610c1d578082015181840152602081019050610c02565b50505050905090810190601f168015610c4a5780820380516001836020036101000a031916815260200191505b50838103825286818151815260200191508051906020019080838360005b83811015610c83578082015181840152602081019050610c68565b50505050905090810190601f168015610cb05780820380516001836020036101000a031916815260200191505b5097505050505050505060405180910390a1505050565b6001602052806000526040600020600091509050806000015490806001018054600181600116156101000203166002900480601f016020809104026020016040519081016040528092919081815260200182805460018160011615610100020316600290048015610d795780601f10610d4e57610100808354040283529160200191610d79565b820191906000526020600020905b815481529060010190602001808311610d5c57829003601f168201915b505050505090806002018054600181600116156101000203166002900480601f016020809104026020016040519081016040528092919081815260200182805460018160011615610100020316600290048015610e175780601f10610dec57610100808354040283529160200191610e17565b820191906000526020600020905b815481529060010190602001808311610dfa57829003601f168201915b5050505050908060030160009054906101000a900473ffffffffffffffffffffffffffffffffffffffff16908060040154908060050154908060060160009054906101000a900473ffffffffffffffffffffffffffffffffffffffff1690806007018054600181600116156101000203166002900480601f016020809104026020016040519081016040528092919081815260200182805460018160011615610100020316600290048015610f0d5780601f10610ee257610100808354040283529160200191610f0d565b820191906000526020600020905b815481529060010190602001808311610ef057829003601f168201915b505050505090806008018054600181600116156101000203166002900480601f016020809104026020016040519081016040528092919081815260200182805460018160011615610100020316600290048015610fab5780601f10610f8057610100808354040283529160200191610fab565b820191906000526020600020905b815481529060010190602001808311610f8e57829003601f168201915b5050505050905089565b60005481565b828054600181600116156101000203166002900490600052602060002090601f016020900481019282601f10610ffc57805160ff191683800117855561102a565b8280016001018555821561102a579182015b8281111561102957825182559160200191906001019061100e565b5b50905061103791906110bb565b5090565b828054600181600116156101000203166002900490600052602060002090601f016020900481019282601f1061107c57805160ff19168380011785556110aa565b828001600101855582156110aa579182015b828111156110a957825182559160200191906001019061108e565b5b5090506110b791906110bb565b5090565b6110dd91905b808211156110d95760008160009055506001016110c1565b5090565b9056fea265627a7a72315820b5ac28a75f4d0d67b986d9dea7e572b34b77cccc3f33e867649510013ceef15164736f6c634300050c0032",
  "source": "pragma solidity >=0.4.21 <0.6.2;\n\ncontract MedRecords {\n\n    // constructor() public {\n    //     placeHolderTest = \"11111111111111111111\";\n    // }\n\n    uint public patientCount = 0;\n    // string public imagetext;\n    // address[] public registeredHospitals;\n\n  struct patient {\n        uint pId;\n        string name;\n        string phone;\n        address payable owner;\n        uint numRecords;\n        // uint[] cost;\n        // address[] uploader;\n        // string[] procedure;\n        // uint[] hospId;\n        // string[] doctorName;\n        // bool[] treated;\n        // string[] image;\n        uint cost;\n        address uploader;\n        string procedure;\n        // uint hospId;\n        string doctorName;\n        // bool treated;\n        // string image;\n\n    }\n\n\n    mapping(uint => patient) public patients;\n    // mapping( => record) public records;\n\n    event PatientAdded(\n        uint pId,\n        string name,\n        string phone,\n        address payable owner,\n        uint numRecords\n    );\n\n    event RecordAdded(\n        uint pId,\n        uint cost,\n        address payable owner,\n        address payable uploader,\n        string procedure,\n        uint hospId,\n        string doctorName,\n        bool treated,\n        string image\n    );\n\n\n    function createPatient(string memory name1, string memory phone1, address payable patientAddress1 )\n     public {\n        patientCount ++;\n\n        patients[patientCount] = patient(\n            patientCount,\n            name1,\n            phone1,\n            patientAddress1,\n            0,\n            0,\n            0x771D3a7C2d6C59D9030731a48D60D8296303fC06,\n            \"\",\n            // 0,\n            \"\"\n            // true,\n            // \"\"\n            );\n\n        emit PatientAdded(patientCount, name1, phone1, msg.sender, 0);\n    }\n// a = await MedRecords.deployed()\n// a.createPatient(\"Farhad\",\"1234567890\",\"0x771D3a7C2d6C59D9030731a48D60D8296303fC06\")\n// a.createRecord(1,100,\"somehting\",1234,\"Dr.abc\",true,\"sampleimg\")\n// // 0x771D3a7C2d6C59D9030731a48D60D8296303fC06\n\n\n    function createRecord(uint pId1, uint cost1, string memory procedure1, uint hospId1, string memory docName1, bool treated1, string memory image1)\n     public {\n\n        // uint position = patients[pId1].numRecords+1;\n        patients[pId1].numRecords++;\n              \n        // patients[pId1].cost.push(cost1);\n        // patients[pId1].uploader.push(msg.sender);\n        // patients[pId1].procedure.push(procedure1);\n        // patients[pId1].hospId.push(hospId1);\n        // patients[pId1].doctorName.push(docName1);\n        // patients[pId1].treated.push(treated1);\n        // patients[pId1].image.push(image1);\n        // patient memory p = patients[pId1];\n        \n\n        // emit RecordAdded(pId1,cost1, patients[pId1].owner,msg.sender,procedure1,hospId1,docName1,treated1, p.image[0]);\n\n\n\n\n\n\n\n\n\n        patients[pId1].cost = cost1; //, patients[pId1].owner,msg.sender,procedure1,hospId1,docName1,treated1,image1);\n        patients[pId1].uploader = msg.sender;\n        patients[pId1].procedure = procedure1;\n        // patients[pId1].hospId = hospId1;\n        patients[pId1].doctorName = docName1;\n        // patients[pId1].treated = treated1;\n        // patients[pId1].image = image1;\n        emit RecordAdded(pId1,cost1, patients[pId1].owner,msg.sender,procedure1,hospId1,docName1,treated1,image1);\n\n\n    }\n\n\n    // function getRecord(uint pId, uint rId) public returns (uint cost)\n    // {\n    //     return patients[pId].cost[rId];\n    // }\n\n\n\n\n\n\n\n\n\n\n    // struct patient {\n    //     uint pId;\n    //     string name;\n    //     string phone;\n    //     address payable owner;\n    //     record[] medicalRec;\n    //     uint numRecords;\n    // }\n\n    // struct record{\n    //     uint cost;\n    //     address payable owner;\n    //     address payable uploader;\n    //     string procedure;\n    //     uint hospId;\n    //     string doctorName;\n    //     bool treated;\n    //     string image;\n    // }\n\n    // mapping(uint => patient) public patients;\n    // // mapping( => record) public records;\n\n    // event PatientAdded(\n    //     uint pId,\n    //     string name,\n    //     string phone,\n    //     address payable owner,\n    //     uint numRecords\n    // );\n\n    // event RecordAdded(\n    //     uint pId,\n    //     uint cost,\n    //     address payable owner,\n    //     address payable uploader,\n    //     string procedure,\n    //     uint hospId,\n    //     string doctorName,\n    //     bool treated,\n    //     string image\n    // );\n\n\n    // function createPatient(string memory name1, string memory phone1, address payable patientAddress1 )\n    //  public {\n    //     patientCount ++;\n    //     // record[100] storage initializer =  ;\n    //     record[] storage initializer = patients[patientCount].medicalRec;\n    //     initializer = new record[](0);\n\n    //     patients[patientCount] = patient(patientCount, name1, phone1, patientAddress1, initializer, 0);\n\n    //     emit PatientAdded(patientCount, name1, phone1, msg.sender, 0);\n    // }\n\n\n    // function createRecord(uint pId1, uint cost1, string memory procedure1, uint hospId1, string memory docName1, bool treated1, string memory image1)\n    //  public {\n\n    //     uint position = patients[pId1].numRecords;\n    //     patients[pId1].numRecords++;\n\n    //     patients[pId1].medicalRec = record(cost1, patients[pId1].owner,msg.sender,procedure1,hospId1,docName1,treated1,image1);\n\n    //     emit RecordAdded(pId1,cost1, patients[pId1].owner,msg.sender,procedure1,hospId1,docName1,treated1,image1);\n    // }\n\n\n\n}\n\n\n\n//   struct Child { } \n//   struct Parent { Child[] children; }\n\n//   Parent[] parents;\n\n//   function test() public {\n//       parents.length++;\n//       Parent storage p = parents[parents.length - 1];\n\n//       Child memory c;\n\n//       p.children.push(c);\n//   }\n// }",
  "sourcePath": "/home/fkb/blockchain/blockChain/sample/src/contracts/MedRecords.sol",
  "compiler": {
    "name": "solc",
    "version": "0.5.12+commit.7709ece9.Emscripten.clang"
  },
  "schemaVersion": "3.0.20",
  "updatedAt": "2020-05-31T15:09:48.059Z",
  "networkType": "ethereum",
  "devdoc": {
    "methods": {}
  },
  "userdoc": {
    "methods": {}
  }
}