{
  "contractName": "Hospital",
  "abi": [
    {
      "inputs": [],
      "payable": false,
      "stateMutability": "nonpayable",
      "type": "constructor"
    },
    {
      "constant": true,
      "inputs": [],
      "name": "recordId",
      "outputs": [
        {
          "internalType": "string",
          "name": "",
          "type": "string"
        }
      ],
      "payable": false,
      "stateMutability": "view",
      "type": "function"
    },
    {
      "constant": true,
      "inputs": [
        {
          "internalType": "int256",
          "name": "number",
          "type": "int256"
        }
      ],
      "name": "getHospitalName",
      "outputs": [
        {
          "internalType": "string",
          "name": "name",
          "type": "string"
        }
      ],
      "payable": false,
      "stateMutability": "pure",
      "type": "function"
    }
  ],
  "bytecode": "0x608060405234801561001057600080fd5b506040518060400160405280601781526020017f6164396438646c6b353469396133306f336f366a6a38370000000000000000008152506000908051906020019061005c929190610062565b50610107565b828054600181600116156101000203166002900490600052602060002090601f016020900481019282601f106100a357805160ff19168380011785556100d1565b828001600101855582156100d1579182015b828111156100d05782518255916020019190600101906100b5565b5b5090506100de91906100e2565b5090565b61010491905b808211156101005760008160009055506001016100e8565b5090565b90565b610305806101166000396000f3fe608060405234801561001057600080fd5b50600436106100365760003560e01c8063bec511a91461003b578063f7dfe22b146100e2575b600080fd5b6100676004803603602081101561005157600080fd5b8101908080359060200190929190505050610165565b6040518080602001828103825283818151815260200191508051906020019080838360005b838110156100a757808201518184015260208101905061008c565b50505050905090810190601f1680156100d45780820380516001836020036101000a031916815260200191505b509250505060405180910390f35b6100ea610232565b6040518080602001828103825283818151815260200191508051906020019080838360005b8381101561012a57808201518184015260208101905061010f565b50505050905090810190601f1680156101575780820380516001836020036101000a031916815260200191505b509250505060405180910390f35b606060018214156101ad576040518060400160405280600a81526020017f486f73706974616c204100000000000000000000000000000000000000000000815250905061022d565b60028214156101f3576040518060400160405280600a81526020017f486f73706974616c204200000000000000000000000000000000000000000000815250905061022c565b6040518060400160405280600e81526020017f446f6573206e6f7420657869737400000000000000000000000000000000000081525090505b5b919050565b60008054600181600116156101000203166002900480601f0160208091040260200160405190810160405280929190818152602001828054600181600116156101000203166002900480156102c85780601f1061029d576101008083540402835291602001916102c8565b820191906000526020600020905b8154815290600101906020018083116102ab57829003601f168201915b50505050508156fea265627a7a72315820a788f9653342a254fef90d8104ef9016c191fa2cb4f48015de35aa792883f7f364736f6c63430005100032",
  "source": "pragma solidity >=0.4.21 <0.6.0;\n\ncontract Hospital{\n    string public recordId;\n\n    constructor() public {\n        recordId = \"ad9d8dlk54i9a30o3o6jj87\";\n    }\n    function getHospitalName(int number) public pure returns (string memory name){\n        if(number==1){\n            name = (\"Hospital A\");\n            }\n        else if(number == 2){\n            name = (\"Hospital B\");\n            }\n        else {\n            name = (\"Does not exist\");\n            }\n    }\n}",
  "sourcePath": "/home/codersam/itsmine/nodejs_projects/Blockchain-for-Medical-Records/Blockchain/working_block/src/contracts/Hospital.sol",
  "compiler": {
    "name": "solc",
    "version": "0.5.16+commit.9c3226ce.Emscripten.clang"
  },
  "schemaVersion": "3.2.0",
  "updatedAt": "2020-05-29T21:43:33.493Z",
  "networkType": "ethereum",
  "devdoc": {
    "methods": {}
  },
  "userdoc": {
    "methods": {}
  }
}