{
    "contractName": "Hospital",
    "abi": [
        {
            "constant": true,
            "inputs": [],
            "name": "recordId",
            "outputs": [
                {
                    "name": "",
                    "type": "string"
                }
            ],
            "payable": false,
            "stateMutability": "view",
            "type": "function"
        },
        {
            "inputs": [],
            "payable": false,
            "stateMutability": "nonpayable",
            "type": "constructor"
        }
    ],
    "bytecode": "608060405234801561001057600080fd5b506040805180820190915260178082527f6164396438646c6b353469396133306f336f366a6a383700000000000000000060209092019182526100559160009161005b565b506100f6565b828054600181600116156101000203166002900490600052602060002090601f016020900481019282601f1061009c57805160ff19168380011785556100c9565b828001600101855582156100c9579182015b828111156100c95782518255916020019190600101906100ae565b506100d59291506100d9565b5090565b6100f391905b808211156100d557600081556001016100df565b90565b610189806101056000396000f3fe6080604052600436106100405763ffffffff7c0100000000000000000000000000000000000000000000000000000000600035041663f7dfe22b8114610045575b600080fd5b34801561005157600080fd5b5061005a6100cf565b6040805160208082528351818301528351919283929083019185019080838360005b8381101561009457818101518382015260200161007c565b50505050905090810190601f1680156100c15780820380516001836020036101000a031916815260200191505b509250505060405180910390f35b6000805460408051602060026001851615610100026000190190941693909304601f810184900484028201840190925281815292918301828280156101555780601f1061012a57610100808354040283529160200191610155565b820191906000526020600020905b81548152906001019060200180831161013857829003601f168201915b50505050508156fea165627a7a72305820f313f3f9b3fb493b3e61f21748dcd3c410649275b062497e165a2d08c442ae3d0029",
    "sourcePath": "/home/fkb/blockChain/sample/src/contracts/sample.sol",
    "compiler": {
        "name": "solc",
        "version": "0.5.0+commit.1d4f565a"
    },
    "functionHashes": {
        "recordId()": "f7dfe22b"
    },
    "gasEstimates": {
        "creation": {
            "codeDepositCost": "78600",
            "executionCost": "infinite",
            "totalCost": "infinite"
        },
        "external": {
            "recordId()": "infinite"
        }
    }
}