{
  "contractName": "MedRecords",
  "abi": [
    {
      "anonymous": false,
      "inputs": [
        {
          "indexed": false,
          "internalType": "uint256",
          "name": "pId",
          "type": "uint256"
        },
        {
          "indexed": false,
          "internalType": "string",
          "name": "name",
          "type": "string"
        },
        {
          "indexed": false,
          "internalType": "string",
          "name": "phone",
          "type": "string"
        },
        {
          "indexed": false,
          "internalType": "address payable",
          "name": "owner",
          "type": "address"
        },
        {
          "indexed": false,
          "internalType": "uint256",
          "name": "numRecords",
          "type": "uint256"
        }
      ],
      "name": "PatientAdded",
      "type": "event"
    },
    {
      "anonymous": false,
      "inputs": [
        {
          "indexed": false,
          "internalType": "uint256",
          "name": "pId",
          "type": "uint256"
        },
        {
          "indexed": false,
          "internalType": "uint256",
          "name": "cost",
          "type": "uint256"
        },
        {
          "indexed": false,
          "internalType": "address payable",
          "name": "owner",
          "type": "address"
        },
        {
          "indexed": false,
          "internalType": "address payable",
          "name": "uploader",
          "type": "address"
        },
        {
          "indexed": false,
          "internalType": "string",
          "name": "procedure",
          "type": "string"
        },
        {
          "indexed": false,
          "internalType": "uint256",
          "name": "hospId",
          "type": "uint256"
        },
        {
          "indexed": false,
          "internalType": "string",
          "name": "doctorName",
          "type": "string"
        },
        {
          "indexed": false,
          "internalType": "bool",
          "name": "treated",
          "type": "bool"
        },
        {
          "indexed": false,
          "internalType": "string",
          "name": "image",
          "type": "string"
        }
      ],
      "name": "RecordAdded",
      "type": "event"
    },
    {
      "constant": true,
      "inputs": [],
      "name": "patientCount",
      "outputs": [
        {
          "internalType": "uint256",
          "name": "",
          "type": "uint256"
        }
      ],
      "payable": false,
      "stateMutability": "view",
      "type": "function"
    },
    {
      "constant": true,
      "inputs": [
        {
          "internalType": "uint256",
          "name": "",
          "type": "uint256"
        }
      ],
      "name": "patients",
      "outputs": [
        {
          "internalType": "uint256",
          "name": "pId",
          "type": "uint256"
        },
        {
          "internalType": "string",
          "name": "name",
          "type": "string"
        },
        {
          "internalType": "string",
          "name": "phone",
          "type": "string"
        },
        {
          "internalType": "address payable",
          "name": "owner",
          "type": "address"
        },
        {
          "internalType": "uint256",
          "name": "numRecords",
          "type": "uint256"
        }
      ],
      "payable": false,
      "stateMutability": "view",
      "type": "function"
    },
    {
      "constant": true,
      "inputs": [
        {
          "internalType": "uint256",
          "name": "",
          "type": "uint256"
        }
      ],
      "name": "registeredHospitals",
      "outputs": [
        {
          "internalType": "address",
          "name": "",
          "type": "address"
        }
      ],
      "payable": false,
      "stateMutability": "view",
      "type": "function"
    },
    {
      "constant": false,
      "inputs": [
        {
          "internalType": "string",
          "name": "name1",
          "type": "string"
        },
        {
          "internalType": "string",
          "name": "phone1",
          "type": "string"
        },
        {
          "internalType": "address payable",
          "name": "patientAddress1",
          "type": "address"
        }
      ],
      "name": "createPatient",
      "outputs": [],
      "payable": false,
      "stateMutability": "nonpayable",
      "type": "function"
    },
    {
      "constant": false,
      "inputs": [
        {
          "internalType": "uint256",
          "name": "pId1",
          "type": "uint256"
        },
        {
          "internalType": "uint256",
          "name": "cost1",
          "type": "uint256"
        },
        {
          "internalType": "string",
          "name": "procedure1",
          "type": "string"
        },
        {
          "internalType": "uint256",
          "name": "hospId1",
          "type": "uint256"
        },
        {
          "internalType": "string",
          "name": "docName1",
          "type": "string"
        },
        {
          "internalType": "bool",
          "name": "treated1",
          "type": "bool"
        },
        {
          "internalType": "string",
          "name": "image1",
          "type": "string"
        }
      ],
      "name": "createRecord",
      "outputs": [],
      "payable": false,
      "stateMutability": "nonpayable",
      "type": "function"
    },
    {
      "constant": false,
      "inputs": [
        {
          "internalType": "uint256",
          "name": "pId",
          "type": "uint256"
        },
        {
          "internalType": "uint256",
          "name": "rId",
          "type": "uint256"
        }
      ],
      "name": "getRecord",
      "outputs": [
        {
          "internalType": "uint256[]",
          "name": "cost",
          "type": "uint256[]"
        },
        {
          "internalType": "string[]",
          "name": "procedure",
          "type": "string[]"
        },
        {
          "internalType": "address[]",
          "name": "uploader",
          "type": "address[]"
        },
        {
          "internalType": "uint256[]",
          "name": "hospId",
          "type": "uint256[]"
        },
        {
          "internalType": "string[]",
          "name": "docName",
          "type": "string[]"
        },
        {
          "internalType": "string[]",
          "name": "image",
          "type": "string[]"
        }
      ],
      "payable": false,
      "stateMutability": "nonpayable",
      "type": "function"
    }
  ],
  "bytecode": "0x60806040526000805534801561001457600080fd5b50612282806100246000396000f3fe608060405234801561001057600080fd5b50600436106100625760003560e01c806333406502146100675780636c04d5bc1461009c5780638b132c60146100b857806393119a83146100d4578063a0303c4114610108578063a1c25ecb14610126575b600080fd5b610081600480360361007c9190810190611a2f565b610156565b60405161009396959493929190611df5565b60405180910390f35b6100b660048036036100b19190810190611a6b565b6105ce565b005b6100d260048036036100cd9190810190611987565b610f2f565b005b6100ee60048036036100e99190810190611a06565b6112cc565b6040516100ff959493929190611efc565b60405180910390f35b610110611452565b60405161011d9190611e80565b60405180910390f35b610140600480360361013b9190810190611a06565b611458565b60405161014d9190611dda565b60405180910390f35b60608060608060608060026000898152602001908152602001600020600501600260008a8152602001908152602001600020600701600260008b8152602001908152602001600020600601600260008c8152602001908152602001600020600801600260008d8152602001908152602001600020600901600260008e8152602001908152602001600020600b018580548060200260200160405190810160405280929190818152602001828054801561022e57602002820191906000526020600020905b81548152602001906001019080831161021a575b5050505050955084805480602002602001604051908101604052809291908181526020016000905b82821015610312578382906000526020600020018054600181600116156101000203166002900480601f0160208091040260200160405190810160405280929190818152602001828054600181600116156101000203166002900480156102fe5780601f106102d3576101008083540402835291602001916102fe565b820191906000526020600020905b8154815290600101906020018083116102e157829003601f168201915b505050505081526020019060010190610256565b5050505094508380548060200260200160405190810160405280929190818152602001828054801561039957602002820191906000526020600020905b8160009054906101000a900473ffffffffffffffffffffffffffffffffffffffff1673ffffffffffffffffffffffffffffffffffffffff168152602001906001019080831161034f575b50505050509350828054806020026020016040519081016040528092919081815260200182805480156103eb57602002820191906000526020600020905b8154815260200190600101908083116103d7575b5050505050925081805480602002602001604051908101604052809291908181526020016000905b828210156104cf578382906000526020600020018054600181600116156101000203166002900480601f0160208091040260200160405190810160405280929190818152602001828054600181600116156101000203166002900480156104bb5780601f10610490576101008083540402835291602001916104bb565b820191906000526020600020905b81548152906001019060200180831161049e57829003601f168201915b505050505081526020019060010190610413565b50505050915080805480602002602001604051908101604052809291908181526020016000905b828210156105b2578382906000526020600020018054600181600116156101000203166002900480601f01602080910402602001604051908101604052809291908181526020018280546001816001161561010002031660029004801561059e5780601f106105735761010080835404028352916020019161059e565b820191906000526020600020905b81548152906001019060200180831161058157829003601f168201915b5050505050815260200190600101906104f6565b5050505090509550955095509550955095509295509295509295565b600260008881526020019081526020016000206004016000815480929190600101919050555060026000888152602001908152602001600020600501869080600181540180825580915050906001820390600052602060002001600090919290919091505550600260008881526020019081526020016000206006013390806001815401808255809150509060018203906000526020600020016000909192909190916101000a81548173ffffffffffffffffffffffffffffffffffffffff021916908373ffffffffffffffffffffffffffffffffffffffff16021790555050600260008881526020019081526020016000206007018590806001815401808255809150509060018203906000526020600020016000909192909190915090805190602001906106ff929190611494565b50506002600088815260200190815260200160002060080184908060018154018082558091505090600182039060005260206000200160009091929091909150555060026000888152602001908152602001600020600901839080600181540180825580915050906001820390600052602060002001600090919290919091509080519060200190610792929190611494565b505060026000888152602001908152602001600020600a0182908060018154018082558091505090600182039060005260206000209060209182820401919006909192909190916101000a81548160ff0219169083151502179055505060026000888152602001908152602001600020600b01819080600181540180825580915050906001820390600052602060002001600090919290919091509080519060200190610840929190611494565b505061084a611514565b600260008981526020019081526020016000206040518061018001604052908160008201548152602001600182018054600181600116156101000203166002900480601f01602080910402602001604051908101604052809291908181526020018280546001816001161561010002031660029004801561090c5780601f106108e15761010080835404028352916020019161090c565b820191906000526020600020905b8154815290600101906020018083116108ef57829003601f168201915b50505050508152602001600282018054600181600116156101000203166002900480601f0160208091040260200160405190810160405280929190818152602001828054600181600116156101000203166002900480156109ae5780601f10610983576101008083540402835291602001916109ae565b820191906000526020600020905b81548152906001019060200180831161099157829003601f168201915b505050505081526020016003820160009054906101000a900473ffffffffffffffffffffffffffffffffffffffff1673ffffffffffffffffffffffffffffffffffffffff1673ffffffffffffffffffffffffffffffffffffffff1681526020016004820154815260200160058201805480602002602001604051908101604052809291908181526020018280548015610a6657602002820191906000526020600020905b815481526020019060010190808311610a52575b5050505050815260200160068201805480602002602001604051908101604052809291908181526020018280548015610af457602002820191906000526020600020905b8160009054906101000a900473ffffffffffffffffffffffffffffffffffffffff1673ffffffffffffffffffffffffffffffffffffffff1681526020019060010190808311610aaa575b5050505050815260200160078201805480602002602001604051908101604052809291908181526020016000905b82821015610bde578382906000526020600020018054600181600116156101000203166002900480601f016020809104026020016040519081016040528092919081815260200182805460018160011615610100020316600290048015610bca5780601f10610b9f57610100808354040283529160200191610bca565b820191906000526020600020905b815481529060010190602001808311610bad57829003601f168201915b505050505081526020019060010190610b22565b50505050815260200160088201805480602002602001604051908101604052809291908181526020018280548015610c3557602002820191906000526020600020905b815481526020019060010190808311610c21575b5050505050815260200160098201805480602002602001604051908101604052809291908181526020016000905b82821015610d1f578382906000526020600020018054600181600116156101000203166002900480601f016020809104026020016040519081016040528092919081815260200182805460018160011615610100020316600290048015610d0b5780601f10610ce057610100808354040283529160200191610d0b565b820191906000526020600020905b815481529060010190602001808311610cee57829003601f168201915b505050505081526020019060010190610c63565b505050508152602001600a8201805480602002602001604051908101604052809291908181526020018280548015610d9b57602002820191906000526020600020906000905b82829054906101000a900460ff16151581526020019060010190602082600001049283019260010382029150808411610d655790505b50505050508152602001600b8201805480602002602001604051908101604052809291908181526020016000905b82821015610e85578382906000526020600020018054600181600116156101000203166002900480601f016020809104026020016040519081016040528092919081815260200182805460018160011615610100020316600290048015610e715780601f10610e4657610100808354040283529160200191610e71565b820191906000526020600020905b815481529060010190602001808311610e5457829003601f168201915b505050505081526020019060010190610dc9565b505050508152505090507f3e7aac93e1d035be78eeee61a3981b4d605c9140156e408ad98ca195c715e1ef8888600260008c815260200190815260200160002060030160009054906101000a900473ffffffffffffffffffffffffffffffffffffffff16338a8a8a8a896101600151600081518110610f0057fe5b6020026020010151604051610f1d99989796959493929190611f5d565b60405180910390a15050505050505050565b600080815480929190600101919050555060405180610180016040528060005481526020018481526020018381526020018273ffffffffffffffffffffffffffffffffffffffff168152602001600081526020016000604051908082528060200260200182016040528015610fb35781602001602082028038833980820191505090505b5081526020016000604051908082528060200260200182016040528015610fe95781602001602082028038833980820191505090505b508152602001600060405190808252806020026020018201604052801561102457816020015b606081526020019060019003908161100f5790505b508152602001600060405190808252806020026020018201604052801561105a5781602001602082028038833980820191505090505b508152602001600060405190808252806020026020018201604052801561109557816020015b60608152602001906001900390816110805790505b50815260200160006040519080825280602002602001820160405280156110cb5781602001602082028038833980820191505090505b508152602001600060405190808252806020026020018201604052801561110657816020015b60608152602001906001900390816110f15790505b50815250600260008054815260200190815260200160002060008201518160000155602082015181600101908051906020019061114492919061158b565b50604082015181600201908051906020019061116192919061158b565b5060608201518160030160006101000a81548173ffffffffffffffffffffffffffffffffffffffff021916908373ffffffffffffffffffffffffffffffffffffffff1602179055506080820151816004015560a08201518160050190805190602001906111cf92919061160b565b5060c08201518160060190805190602001906111ec929190611658565b5060e08201518160070190805190602001906112099291906116e2565b5061010082015181600801908051906020019061122792919061160b565b506101208201518160090190805190602001906112459291906116e2565b5061014082015181600a019080519060200190611263929190611742565b5061016082015181600b0190805190602001906112819291906116e2565b509050507fade6e0d4e65b59714be038ed514e2984a98deb0777162f1d8f691a5b8bd82ded60005484843360006040516112bf959493929190611e9b565b60405180910390a1505050565b6002602052806000526040600020600091509050806000015490806001018054600181600116156101000203166002900480601f01602080910402602001604051908101604052809291908181526020018280546001816001161561010002031660029004801561137e5780601f106113535761010080835404028352916020019161137e565b820191906000526020600020905b81548152906001019060200180831161136157829003601f168201915b505050505090806002018054600181600116156101000203166002900480601f01602080910402602001604051908101604052809291908181526020018280546001816001161561010002031660029004801561141c5780601f106113f15761010080835404028352916020019161141c565b820191906000526020600020905b8154815290600101906020018083116113ff57829003601f168201915b5050505050908060030160009054906101000a900473ffffffffffffffffffffffffffffffffffffffff16908060040154905085565b60005481565b6001818154811061146557fe5b906000526020600020016000915054906101000a900473ffffffffffffffffffffffffffffffffffffffff1681565b828054600181600116156101000203166002900490600052602060002090601f016020900481019282601f106114d557805160ff1916838001178555611503565b82800160010185558215611503579182015b828111156115025782518255916020019190600101906114e7565b5b50905061151091906117e8565b5090565b604051806101800160405280600081526020016060815260200160608152602001600073ffffffffffffffffffffffffffffffffffffffff16815260200160008152602001606081526020016060815260200160608152602001606081526020016060815260200160608152602001606081525090565b828054600181600116156101000203166002900490600052602060002090601f016020900481019282601f106115cc57805160ff19168380011785556115fa565b828001600101855582156115fa579182015b828111156115f95782518255916020019190600101906115de565b5b50905061160791906117e8565b5090565b828054828255906000526020600020908101928215611647579160200282015b8281111561164657825182559160200191906001019061162b565b5b50905061165491906117e8565b5090565b8280548282559060005260206000209081019282156116d1579160200282015b828111156116d05782518260006101000a81548173ffffffffffffffffffffffffffffffffffffffff021916908373ffffffffffffffffffffffffffffffffffffffff16021790555091602001919060010190611678565b5b5090506116de919061180d565b5090565b828054828255906000526020600020908101928215611731579160200282015b8281111561173057825182908051906020019061172092919061158b565b5091602001919060010190611702565b5b50905061173e9190611850565b5090565b82805482825590600052602060002090601f016020900481019282156117d75791602002820160005b838211156117a857835183826101000a81548160ff021916908315150217905550926020019260010160208160000104928301926001030261176b565b80156117d55782816101000a81549060ff02191690556001016020816000010492830192600103026117a8565b505b5090506117e4919061187c565b5090565b61180a91905b808211156118065760008160009055506001016117ee565b5090565b90565b61184d91905b8082111561184957600081816101000a81549073ffffffffffffffffffffffffffffffffffffffff021916905550600101611813565b5090565b90565b61187991905b80821115611875576000818161186c91906118ac565b50600101611856565b5090565b90565b6118a991905b808211156118a557600081816101000a81549060ff021916905550600101611882565b5090565b90565b50805460018160011615610100020316600290046000825580601f106118d257506118f1565b601f0160209004906000526020600020908101906118f091906117e8565b5b50565b600081359050611903816121fa565b92915050565b60008135905061191881612211565b92915050565b600082601f83011261192f57600080fd5b813561194261193d8261202c565b611fff565b9150808252602083016020830185838301111561195e57600080fd5b6119698382846121a7565b50505092915050565b60008135905061198181612228565b92915050565b60008060006060848603121561199c57600080fd5b600084013567ffffffffffffffff8111156119b657600080fd5b6119c28682870161191e565b935050602084013567ffffffffffffffff8111156119df57600080fd5b6119eb8682870161191e565b92505060406119fc868287016118f4565b9150509250925092565b600060208284031215611a1857600080fd5b6000611a2684828501611972565b91505092915050565b60008060408385031215611a4257600080fd5b6000611a5085828601611972565b9250506020611a6185828601611972565b9150509250929050565b600080600080600080600060e0888a031215611a8657600080fd5b6000611a948a828b01611972565b9750506020611aa58a828b01611972565b965050604088013567ffffffffffffffff811115611ac257600080fd5b611ace8a828b0161191e565b9550506060611adf8a828b01611972565b945050608088013567ffffffffffffffff811115611afc57600080fd5b611b088a828b0161191e565b93505060a0611b198a828b01611909565b92505060c088013567ffffffffffffffff811115611b3657600080fd5b611b428a828b0161191e565b91505092959891949750929550565b6000611b5d8383611ba4565b60208301905092915050565b6000611b758383611d4a565b905092915050565b6000611b898383611dbc565b60208301905092915050565b611b9e8161214d565b82525050565b611bad8161213b565b82525050565b611bbc8161213b565b82525050565b6000611bcd82612088565b611bd781856120e6565b9350611be283612058565b8060005b83811015611c13578151611bfa8882611b51565b9750611c05836120bf565b925050600181019050611be6565b5085935050505092915050565b6000611c2b82612093565b611c3581856120f7565b935083602082028501611c4785612068565b8060005b85811015611c835784840389528151611c648582611b69565b9450611c6f836120cc565b925060208a01995050600181019050611c4b565b50829750879550505050505092915050565b6000611ca08261209e565b611caa8185612108565b9350611cb583612078565b8060005b83811015611ce6578151611ccd8882611b7d565b9750611cd8836120d9565b925050600181019050611cb9565b5085935050505092915050565b611cfc8161215f565b82525050565b611d0b81612195565b82525050565b6000611d1c826120b4565b611d26818561212a565b9350611d368185602086016121b6565b611d3f816121e9565b840191505092915050565b6000611d55826120a9565b611d5f8185612119565b9350611d6f8185602086016121b6565b611d78816121e9565b840191505092915050565b6000611d8e826120a9565b611d98818561212a565b9350611da88185602086016121b6565b611db1816121e9565b840191505092915050565b611dc58161218b565b82525050565b611dd48161218b565b82525050565b6000602082019050611def6000830184611bb3565b92915050565b600060c0820190508181036000830152611e0f8189611c95565b90508181036020830152611e238188611c20565b90508181036040830152611e378187611bc2565b90508181036060830152611e4b8186611c95565b90508181036080830152611e5f8185611c20565b905081810360a0830152611e738184611c20565b9050979650505050505050565b6000602082019050611e956000830184611dcb565b92915050565b600060a082019050611eb06000830188611dcb565b8181036020830152611ec28187611d11565b90508181036040830152611ed68186611d11565b9050611ee56060830185611b95565b611ef26080830184611d02565b9695505050505050565b600060a082019050611f116000830188611dcb565b8181036020830152611f238187611d83565b90508181036040830152611f378186611d83565b9050611f466060830185611b95565b611f536080830184611dcb565b9695505050505050565b600061012082019050611f73600083018c611dcb565b611f80602083018b611dcb565b611f8d604083018a611b95565b611f9a6060830189611b95565b8181036080830152611fac8188611d11565b9050611fbb60a0830187611dcb565b81810360c0830152611fcd8186611d11565b9050611fdc60e0830185611cf3565b818103610100830152611fef8184611d83565b90509a9950505050505050505050565b6000604051905081810181811067ffffffffffffffff8211171561202257600080fd5b8060405250919050565b600067ffffffffffffffff82111561204357600080fd5b601f19601f8301169050602081019050919050565b6000819050602082019050919050565b6000819050602082019050919050565b6000819050602082019050919050565b600081519050919050565b600081519050919050565b600081519050919050565b600081519050919050565b600081519050919050565b6000602082019050919050565b6000602082019050919050565b6000602082019050919050565b600082825260208201905092915050565b600082825260208201905092915050565b600082825260208201905092915050565b600082825260208201905092915050565b600082825260208201905092915050565b60006121468261216b565b9050919050565b60006121588261216b565b9050919050565b60008115159050919050565b600073ffffffffffffffffffffffffffffffffffffffff82169050919050565b6000819050919050565b60006121a08261218b565b9050919050565b82818337600083830152505050565b60005b838110156121d45780820151818401526020810190506121b9565b838111156121e3576000848401525b50505050565b6000601f19601f8301169050919050565b6122038161214d565b811461220e57600080fd5b50565b61221a8161215f565b811461222557600080fd5b50565b6122318161218b565b811461223c57600080fd5b5056fea365627a7a72315820e45e958553249b0d2dde0450a95d91ce1bbd343f81c146bb2c5d75fb123d45dd6c6578706572696d656e74616cf564736f6c634300050c0040",
  "source": "pragma solidity >=0.4.21 <0.6.2;\npragma experimental ABIEncoderV2;\n\ncontract MedRecords {\n\n    // constructor() public {\n    //     placeHolderTest = \"11111111111111111111\";\n    // }\n\n    uint public patientCount = 0;\n    // string public imagetext;\n    address[] public registeredHospitals;\n\n  struct patient {\n        uint pId;\n        string name;\n        string phone;\n        address payable owner;\n        uint numRecords;\n        uint[] cost;\n        address[] uploader;\n        string[] procedure;\n        uint[] hospId;\n        string[] doctorName;\n        bool[] treated;\n        string[] image;\n        // uint cost;\n        // address uploader;\n        // string procedure;\n        // uint hospId;\n        // string doctorName;\n        // bool treated;\n        // string image;\n\n    }\n\n\n    mapping(uint => patient) public patients;\n    // mapping( => record) public records;\n\n    event PatientAdded(\n        uint pId,\n        string name,\n        string phone,\n        address payable owner,\n        uint numRecords\n    );\n\n    event RecordAdded(\n        uint pId,\n        uint cost,\n        address payable owner,\n        address payable uploader,\n        string procedure,\n        uint hospId,\n        string doctorName,\n        bool treated,\n        string image\n    );\n\n\n    function createPatient(string memory name1, string memory phone1, address payable patientAddress1 )\n     public {\n        patientCount ++;\n\n        patients[patientCount] = patient(\n            patientCount,\n            name1,\n            phone1,\n            patientAddress1,\n            0,\n            new uint[](0),\n            new address[](0),\n            new string[](0),\n            new uint[](0),\n            new string[](0),\n            new bool[](0),\n            new string[](0)\n            // 0,\n            // 0x771D3a7C2d6C59D9030731a48D60D8296303fC06,\n            // \"\",\n            // 0,\n            // \"\",\n            // true,\n            // \"\"\n            );\n\n        emit PatientAdded(patientCount, name1, phone1, msg.sender, 0);\n    }\n// a = await MedRecords.deployed()\n// a.createPatient(\"Farhad\",\"1234567890\",\"0x771D3a7C2d6C59D9030731a48D60D8296303fC06\")\n// a.createRecord(1,100,\"somehting\",1234,\"Dr.abc\",true,\"sampleimg\")\n// // 0x771D3a7C2d6C59D9030731a48D60D8296303fC06\n\n\n    function createRecord(uint pId1, uint cost1, string memory procedure1, uint hospId1, string memory docName1, bool treated1, string memory image1)\n     public {\n\n        // uint position = patients[pId1].numRecords+1;\n        patients[pId1].numRecords++;\n              \n        patients[pId1].cost.push(cost1);\n        patients[pId1].uploader.push(msg.sender);\n        patients[pId1].procedure.push(procedure1);\n        patients[pId1].hospId.push(hospId1);\n        patients[pId1].doctorName.push(docName1);\n        patients[pId1].treated.push(treated1);\n        patients[pId1].image.push(image1);\n        patient memory p = patients[pId1];\n        \n\n        emit RecordAdded(pId1,cost1, patients[pId1].owner,msg.sender,procedure1,hospId1,docName1,treated1, p.image[0]);\n\n\n\n\n\n\n\n\n\n        // patients[pId1].cost = cost1; //, patients[pId1].owner,msg.sender,procedure1,hospId1,docName1,treated1,image1);\n        // patients[pId1].uploader = msg.sender;\n        // patients[pId1].procedure = procedure1;\n        // // patients[pId1].hospId = hospId1;\n        // patients[pId1].doctorName = docName1;\n        // // patients[pId1].treated = treated1;\n        // // patients[pId1].image = image1;\n        // emit RecordAdded(pId1,cost1, patients[pId1].owner,msg.sender,procedure1,hospId1,docName1,treated1,image1);\n\n\n    }\n\n\n    function getRecord(uint pId, uint rId) public returns (uint[] memory cost, string[] memory procedure, address[] memory uploader, uint[] memory hospId, string[] memory docName,string[] memory image)\n    {\n        return (patients[pId].cost, patients[pId].procedure, patients[pId].uploader, patients[pId].hospId, patients[pId].doctorName, patients[pId].image );\n    }\n\n\n\n\n\n\n\n\n\n\n    // struct patient {\n    //     uint pId;\n    //     string name;\n    //     string phone;\n    //     address payable owner;\n    //     record[] medicalRec;\n    //     uint numRecords;\n    // }\n\n    // struct record{\n    //     uint cost;\n    //     address payable owner;\n    //     address payable uploader;\n    //     string procedure;\n    //     uint hospId;\n    //     string doctorName;\n    //     bool treated;\n    //     string image;\n    // }\n\n    // mapping(uint => patient) public patients;\n    // // mapping( => record) public records;\n\n    // event PatientAdded(\n    //     uint pId,\n    //     string name,\n    //     string phone,\n    //     address payable owner,\n    //     uint numRecords\n    // );\n\n    // event RecordAdded(\n    //     uint pId,\n    //     uint cost,\n    //     address payable owner,\n    //     address payable uploader,\n    //     string procedure,\n    //     uint hospId,\n    //     string doctorName,\n    //     bool treated,\n    //     string image\n    // );\n\n\n    // function createPatient(string memory name1, string memory phone1, address payable patientAddress1 )\n    //  public {\n    //     patientCount ++;\n    //     // record[100] storage initializer =  ;\n    //     record[] storage initializer = patients[patientCount].medicalRec;\n    //     initializer = new record[](0);\n\n    //     patients[patientCount] = patient(patientCount, name1, phone1, patientAddress1, initializer, 0);\n\n    //     emit PatientAdded(patientCount, name1, phone1, msg.sender, 0);\n    // }\n\n\n    // function createRecord(uint pId1, uint cost1, string memory procedure1, uint hospId1, string memory docName1, bool treated1, string memory image1)\n    //  public {\n\n    //     uint position = patients[pId1].numRecords;\n    //     patients[pId1].numRecords++;\n\n    //     patients[pId1].medicalRec = record(cost1, patients[pId1].owner,msg.sender,procedure1,hospId1,docName1,treated1,image1);\n\n    //     emit RecordAdded(pId1,cost1, patients[pId1].owner,msg.sender,procedure1,hospId1,docName1,treated1,image1);\n    // }\n\n\n\n}\n\n\n\n//   struct Child { } \n//   struct Parent { Child[] children; }\n\n//   Parent[] parents;\n\n//   function test() public {\n//       parents.length++;\n//       Parent storage p = parents[parents.length - 1];\n\n//       Child memory c;\n\n//       p.children.push(c);\n//   }\n// }",
  "sourcePath": "/home/fkb/blockchain/blockChain/sample/src/contracts/MedRecords.sol",
  "compiler": {
    "name": "solc",
    "version": "0.5.12+commit.7709ece9.Emscripten.clang"
  },
  "schemaVersion": "3.0.20",
  "updatedAt": "2020-06-04T06:42:22.930Z",
  "networkType": "ethereum",
  "devdoc": {
    "methods": {}
  },
  "userdoc": {
    "methods": {}
  }
}